{
  "_format": "hh-sol-artifact-1",
  "contractName": "MintNFT",
  "sourceName": "contracts/MintNFT.sol",
  "abi": [
    {
      "inputs": [],
      "stateMutability": "nonpayable",
      "type": "constructor"
    },
    {
      "anonymous": false,
      "inputs": [
        {
          "indexed": true,
          "internalType": "address",
          "name": "owner",
          "type": "address"
        },
        {
          "indexed": true,
          "internalType": "address",
          "name": "approved",
          "type": "address"
        },
        {
          "indexed": true,
          "internalType": "uint256",
          "name": "tokenId",
          "type": "uint256"
        }
      ],
      "name": "Approval",
      "type": "event"
    },
    {
      "anonymous": false,
      "inputs": [
        {
          "indexed": true,
          "internalType": "address",
          "name": "owner",
          "type": "address"
        },
        {
          "indexed": true,
          "internalType": "address",
          "name": "operator",
          "type": "address"
        },
        {
          "indexed": false,
          "internalType": "bool",
          "name": "approved",
          "type": "bool"
        }
      ],
      "name": "ApprovalForAll",
      "type": "event"
    },
    {
      "anonymous": false,
      "inputs": [
        {
          "indexed": true,
          "internalType": "address",
          "name": "from",
          "type": "address"
        },
        {
          "indexed": true,
          "internalType": "address",
          "name": "to",
          "type": "address"
        },
        {
          "indexed": true,
          "internalType": "uint256",
          "name": "tokenId",
          "type": "uint256"
        }
      ],
      "name": "Transfer",
      "type": "event"
    },
    {
      "inputs": [
        {
          "internalType": "address",
          "name": "to",
          "type": "address"
        },
        {
          "internalType": "uint256",
          "name": "tokenId",
          "type": "uint256"
        }
      ],
      "name": "approve",
      "outputs": [],
      "stateMutability": "nonpayable",
      "type": "function"
    },
    {
      "inputs": [
        {
          "internalType": "address",
          "name": "owner",
          "type": "address"
        }
      ],
      "name": "balanceOf",
      "outputs": [
        {
          "internalType": "uint256",
          "name": "",
          "type": "uint256"
        }
      ],
      "stateMutability": "view",
      "type": "function"
    },
    {
      "inputs": [
        {
          "internalType": "uint256",
          "name": "tokenId",
          "type": "uint256"
        }
      ],
      "name": "getApproved",
      "outputs": [
        {
          "internalType": "address",
          "name": "",
          "type": "address"
        }
      ],
      "stateMutability": "view",
      "type": "function"
    },
    {
      "inputs": [
        {
          "internalType": "address",
          "name": "owner",
          "type": "address"
        },
        {
          "internalType": "address",
          "name": "operator",
          "type": "address"
        }
      ],
      "name": "isApprovedForAll",
      "outputs": [
        {
          "internalType": "bool",
          "name": "",
          "type": "bool"
        }
      ],
      "stateMutability": "view",
      "type": "function"
    },
    {
      "inputs": [],
      "name": "makeMintNFT",
      "outputs": [],
      "stateMutability": "nonpayable",
      "type": "function"
    },
    {
      "inputs": [],
      "name": "name",
      "outputs": [
        {
          "internalType": "string",
          "name": "",
          "type": "string"
        }
      ],
      "stateMutability": "view",
      "type": "function"
    },
    {
      "inputs": [
        {
          "internalType": "uint256",
          "name": "tokenId",
          "type": "uint256"
        }
      ],
      "name": "ownerOf",
      "outputs": [
        {
          "internalType": "address",
          "name": "",
          "type": "address"
        }
      ],
      "stateMutability": "view",
      "type": "function"
    },
    {
      "inputs": [
        {
          "internalType": "uint256",
          "name": "tokenId",
          "type": "uint256"
        }
      ],
      "name": "pickRandomFirstWord",
      "outputs": [
        {
          "internalType": "string",
          "name": "",
          "type": "string"
        }
      ],
      "stateMutability": "view",
      "type": "function"
    },
    {
      "inputs": [
        {
          "internalType": "uint256",
          "name": "tokenId",
          "type": "uint256"
        }
      ],
      "name": "pickRandomSecondWord",
      "outputs": [
        {
          "internalType": "string",
          "name": "",
          "type": "string"
        }
      ],
      "stateMutability": "view",
      "type": "function"
    },
    {
      "inputs": [
        {
          "internalType": "uint256",
          "name": "tokenId",
          "type": "uint256"
        }
      ],
      "name": "pickRandomThirdWord",
      "outputs": [
        {
          "internalType": "string",
          "name": "",
          "type": "string"
        }
      ],
      "stateMutability": "view",
      "type": "function"
    },
    {
      "inputs": [
        {
          "internalType": "address",
          "name": "from",
          "type": "address"
        },
        {
          "internalType": "address",
          "name": "to",
          "type": "address"
        },
        {
          "internalType": "uint256",
          "name": "tokenId",
          "type": "uint256"
        }
      ],
      "name": "safeTransferFrom",
      "outputs": [],
      "stateMutability": "nonpayable",
      "type": "function"
    },
    {
      "inputs": [
        {
          "internalType": "address",
          "name": "from",
          "type": "address"
        },
        {
          "internalType": "address",
          "name": "to",
          "type": "address"
        },
        {
          "internalType": "uint256",
          "name": "tokenId",
          "type": "uint256"
        },
        {
          "internalType": "bytes",
          "name": "_data",
          "type": "bytes"
        }
      ],
      "name": "safeTransferFrom",
      "outputs": [],
      "stateMutability": "nonpayable",
      "type": "function"
    },
    {
      "inputs": [
        {
          "internalType": "address",
          "name": "operator",
          "type": "address"
        },
        {
          "internalType": "bool",
          "name": "approved",
          "type": "bool"
        }
      ],
      "name": "setApprovalForAll",
      "outputs": [],
      "stateMutability": "nonpayable",
      "type": "function"
    },
    {
      "inputs": [
        {
          "internalType": "bytes4",
          "name": "interfaceId",
          "type": "bytes4"
        }
      ],
      "name": "supportsInterface",
      "outputs": [
        {
          "internalType": "bool",
          "name": "",
          "type": "bool"
        }
      ],
      "stateMutability": "view",
      "type": "function"
    },
    {
      "inputs": [],
      "name": "symbol",
      "outputs": [
        {
          "internalType": "string",
          "name": "",
          "type": "string"
        }
      ],
      "stateMutability": "view",
      "type": "function"
    },
    {
      "inputs": [
        {
          "internalType": "uint256",
          "name": "tokenId",
          "type": "uint256"
        }
      ],
      "name": "tokenURI",
      "outputs": [
        {
          "internalType": "string",
          "name": "",
          "type": "string"
        }
      ],
      "stateMutability": "view",
      "type": "function"
    },
    {
      "inputs": [
        {
          "internalType": "address",
          "name": "from",
          "type": "address"
        },
        {
          "internalType": "address",
          "name": "to",
          "type": "address"
        },
        {
          "internalType": "uint256",
          "name": "tokenId",
          "type": "uint256"
        }
      ],
      "name": "transferFrom",
      "outputs": [],
      "stateMutability": "nonpayable",
      "type": "function"
    }
  ],
  "bytecode": "0x6080604052604051806103e001604052806103b68152602001620060f86103b691396008908051906020019062000038929190620024ed565b506040518061064001604052806040518060400160405280600481526020017f41626c650000000000000000000000000000000000000000000000000000000081525081526020016040518060400160405280600381526020017f426164000000000000000000000000000000000000000000000000000000000081525081526020016040518060400160405280600481526020017f426573740000000000000000000000000000000000000000000000000000000081525081526020016040518060400160405280600681526020017f426574746572000000000000000000000000000000000000000000000000000081525081526020016040518060400160405280600381526020017f426967000000000000000000000000000000000000000000000000000000000081525081526020016040518060400160405280600581526020017f426c61636b00000000000000000000000000000000000000000000000000000081525081526020016040518060400160405280600781526020017f4365727461696e0000000000000000000000000000000000000000000000000081525081526020016040518060400160405280600581526020017f436c65617200000000000000000000000000000000000000000000000000000081525081526020016040518060400160405280600981526020017f446966666572656e74000000000000000000000000000000000000000000000081525081526020016040518060400160405280600581526020017f4561726c7900000000000000000000000000000000000000000000000000000081525081526020016040518060400160405280600481526020017f456173790000000000000000000000000000000000000000000000000000000081525081526020016040518060400160405280600881526020017f45636f6e6f6d696300000000000000000000000000000000000000000000000081525081526020016040518060400160405280600781526020017f4665646572616c0000000000000000000000000000000000000000000000000081525081526020016040518060400160405280600481526020017f467265650000000000000000000000000000000000000000000000000000000081525081526020016040518060400160405280600481526020017f46756c6c0000000000000000000000000000000000000000000000000000000081525081526020016040518060400160405280600481526020017f476f6f640000000000000000000000000000000000000000000000000000000081525081526020016040518060400160405280600581526020017f477265617400000000000000000000000000000000000000000000000000000081525081526020016040518060400160405280600481526020017f486172640000000000000000000000000000000000000000000000000000000081525081526020016040518060400160405280600481526020017f486967680000000000000000000000000000000000000000000000000000000081525081526020016040518060400160405280600581526020017f48756d616e00000000000000000000000000000000000000000000000000000081525081526020016040518060400160405280600981526020017f496d706f7274616e74000000000000000000000000000000000000000000000081525081526020016040518060400160405280600d81526020017f496e7465726e6174696f6e616c0000000000000000000000000000000000000081525081526020016040518060400160405280600581526020017f4c6172676500000000000000000000000000000000000000000000000000000081525081526020016040518060400160405280600481526020017f4c6174650000000000000000000000000000000000000000000000000000000081525081526020016040518060400160405280600681526020017f4c6974746c65000000000000000000000000000000000000000000000000000081525081526020016040518060400160405280600581526020017f4c6f63616c00000000000000000000000000000000000000000000000000000081525081526020016040518060400160405280600481526020017f4c6f6e670000000000000000000000000000000000000000000000000000000081525081526020016040518060400160405280600381526020017f4c6f77000000000000000000000000000000000000000000000000000000000081525081526020016040518060400160405280600581526020017f4d616a6f7200000000000000000000000000000000000000000000000000000081525081526020016040518060400160405280600881526020017f4d696c697461727900000000000000000000000000000000000000000000000081525081526020016040518060400160405280600881526020017f4e6174696f6e616c00000000000000000000000000000000000000000000000081525081526020016040518060400160405280600381526020017f4e6577000000000000000000000000000000000000000000000000000000000081525081526020016040518060400160405280600381526020017f4f6c64000000000000000000000000000000000000000000000000000000000081525081526020016040518060400160405280600481526020017f4f6e6c790000000000000000000000000000000000000000000000000000000081525081526020016040518060400160405280600581526020017f4f7468657200000000000000000000000000000000000000000000000000000081525081526020016040518060400160405280600981526020017f506f6c69746963616c000000000000000000000000000000000000000000000081525081526020016040518060400160405280600881526020017f506f737369626c6500000000000000000000000000000000000000000000000081525081526020016040518060400160405280600681526020017f5075626c6963000000000000000000000000000000000000000000000000000081525081526020016040518060400160405280600481526020017f5265616c0000000000000000000000000000000000000000000000000000000081525081526020016040518060400160405280600681526020017f526563656e74000000000000000000000000000000000000000000000000000081525081526020016040518060400160405280600581526020017f526967687400000000000000000000000000000000000000000000000000000081525081526020016040518060400160405280600581526020017f536d616c6c00000000000000000000000000000000000000000000000000000081525081526020016040518060400160405280600681526020017f536f6369616c000000000000000000000000000000000000000000000000000081525081526020016040518060400160405280600781526020017f5370656369616c0000000000000000000000000000000000000000000000000081525081526020016040518060400160405280600681526020017f5374726f6e67000000000000000000000000000000000000000000000000000081525081526020016040518060400160405280600481526020017f537572650000000000000000000000000000000000000000000000000000000081525081526020016040518060400160405280600981526020017f57686f6c65736f6d65000000000000000000000000000000000000000000000081525081526020016040518060400160405280600581526020017f576869746500000000000000000000000000000000000000000000000000000081525081526020016040518060400160405280600581526020017f57686f6c6500000000000000000000000000000000000000000000000000000081525081526020016040518060400160405280600581526020017f596f756e67000000000000000000000000000000000000000000000000000000815250815250600990603262000bdb9291906200257e565b506040518061064001604052806040518060400160405280600d81526020017f4772616e646368696c6472656e0000000000000000000000000000000000000081525081526020016040518060400160405280600d81526020017f457863657074696f6e616c6c790000000000000000000000000000000000000081525081526020016040518060400160405280600d81526020017f5265636f72646b656570696e670000000000000000000000000000000000000081525081526020016040518060400160405280600d81526020017f43686f72656f677261706865640000000000000000000000000000000000000081525081526020016040518060400160405280600d81526020017f53696e67756c617269746965730000000000000000000000000000000000000081525081526020016040518060400160405280600d81526020017f5765696768746c696674696e670000000000000000000000000000000000000081525081526020016040518060400160405280600d81526020017f547269616e67756c6174696f6e0000000000000000000000000000000000000081525081526020016040518060400160405280600d81526020017f536369656e63656469726563740000000000000000000000000000000000000081525081526020016040518060400160405280600d81526020017f496e7465726163746976656c790000000000000000000000000000000000000081525081526020016040518060400160405280600d81526020017f436f6d6d756e696361746f72730000000000000000000000000000000000000081525081526020016040518060400160405280600d81526020017f4e65696768626f72686f6f64730000000000000000000000000000000000000081525081526020016040518060400160405280600d81526020017f5472616e7376657374697465730000000000000000000000000000000000000081525081526020016040518060400160405280600d81526020017f4d6964646c657362726f7567680000000000000000000000000000000000000081525081526020016040518060400160405280600d81526020017f436f6d6d756e69636174696e670000000000000000000000000000000000000081525081526020016040518060400160405280600d81526020017f4566666563746976656e6573730000000000000000000000000000000000000081525081526020016040518060400160405280600d81526020017f4578706f6e656e7469616c6c790000000000000000000000000000000000000081525081526020016040518060400160405280600d81526020017f496e74657267616c61637469630000000000000000000000000000000000000081525081526020016040518060400160405280600d81526020017f417373617373696e6174696f6e0000000000000000000000000000000000000081525081526020016040518060400160405280600d81526020017f416e6e697665727361726965730000000000000000000000000000000000000081525081526020016040518060400160405280600d81526020017f546865726d6f706c61737469630000000000000000000000000000000000000081525081526020016040518060400160405280600d81526020017f496e64697370656e7361626c650000000000000000000000000000000000000081525081526020016040518060400160405280600d81526020017f50726564657465726d696e65640000000000000000000000000000000000000081525081526020016040518060400160405280600d81526020017f476c6f62616c69736174696f6e0000000000000000000000000000000000000081525081526020016040518060400160405280600d81526020017f44656d6f6e7374726174696f6e0000000000000000000000000000000000000081525081526020016040518060400160405280600d81526020017f417374726f706879736963616c0000000000000000000000000000000000000081525081526020016040518060400160405280600d81526020017f476c79636f70726f7465696e730000000000000000000000000000000000000081525081526020016040518060400160405280600d81526020017f4e7574726974696f6e697374730000000000000000000000000000000000000081525081526020016040518060400160405280600d81526020017f417574686f72697461746976650000000000000000000000000000000000000081525081526020016040518060400160405280600d81526020017f446973696e74657265737465640000000000000000000000000000000000000081525081526020016040518060400160405280600d81526020017f537570657273746974696f75730000000000000000000000000000000000000081525081526020016040518060400160405280600d81526020017f436f6e636174656e6174696f6e0000000000000000000000000000000000000081525081526020016040518060400160405280600d81526020017f496d7072657373696f6e6973740000000000000000000000000000000000000081525081526020016040518060400160405280600d81526020017f446973636f6e6e656374696f6e0000000000000000000000000000000000000081525081526020016040518060400160405280600d81526020017f436f6e737472756374696f6e730000000000000000000000000000000000000081525081526020016040518060400160405280600d81526020017f4f626a656374696f6e61626c650000000000000000000000000000000000000081525081526020016040518060400160405280600d81526020017f436f6d7061746162696c6974790000000000000000000000000000000000000081525081526020016040518060400160405280600d81526020017f4d6f6465726e697a6174696f6e0000000000000000000000000000000000000081525081526020016040518060400160405280600d81526020017f496d70726f7669736174696f6e0000000000000000000000000000000000000081525081526020016040518060400160405280600d81526020017f546f706f67726170686963616c0000000000000000000000000000000000000081525081526020016040518060400160405280600d81526020017f456e6379636c6f7065646961730000000000000000000000000000000000000081525081526020016040518060400160405280600d81526020017f417070726f78696d6174656c790000000000000000000000000000000000000081525081526020016040518060400160405280600d81526020017f44657465726d696e69737469630000000000000000000000000000000000000081525081526020016040518060400160405280600d81526020017f56756c6e65726162696c6974790000000000000000000000000000000000000081525081526020016040518060400160405280600d81526020017f446973636f6e74696e756f75730000000000000000000000000000000000000081525081526020016040518060400160405280600d81526020017f44697373656d696e6174696e670000000000000000000000000000000000000081525081526020016040518060400160405280600d81526020017f416e746962616374657269616c0000000000000000000000000000000000000081525081526020016040518060400160405280600d81526020017f436f6d706f736974696f6e616c0000000000000000000000000000000000000081525081526020016040518060400160405280600d81526020017f556e7375737461696e61626c650000000000000000000000000000000000000081525081526020016040518060400160405280600d81526020017f54656c656d61726b6574696e670000000000000000000000000000000000000081525081526020016040518060400160405280600d81526020017f436f6d7075746572776f726c6400000000000000000000000000000000000000815250815250600a9060326200177e9291906200257e565b506040518061064001604052806040518060400160405280600681526020017f536174697661000000000000000000000000000000000000000000000000000081525081526020016040518060400160405280600681526020017f427573746564000000000000000000000000000000000000000000000000000081525081526020016040518060400160405280600681526020017f53616d706c65000000000000000000000000000000000000000000000000000081525081526020016040518060400160405280600681526020017f4c696e657570000000000000000000000000000000000000000000000000000081525081526020016040518060400160405280600681526020017f537072696e74000000000000000000000000000000000000000000000000000081525081526020016040518060400160405280600681526020017f4162726f6164000000000000000000000000000000000000000000000000000081525081526020016040518060400160405280600681526020017f4761776b6572000000000000000000000000000000000000000000000000000081525081526020016040518060400160405280600681526020017f4b696e6e6579000000000000000000000000000000000000000000000000000081525081526020016040518060400160405280600681526020017f44756c6c6573000000000000000000000000000000000000000000000000000081525081526020016040518060400160405280600681526020017f5361726e6961000000000000000000000000000000000000000000000000000081525081526020016040518060400160405280600681526020017f546f70706564000000000000000000000000000000000000000000000000000081525081526020016040518060400160405280600681526020017f416477617265000000000000000000000000000000000000000000000000000081525081526020016040518060400160405280600681526020017f467574757261000000000000000000000000000000000000000000000000000081525081526020016040518060400160405280600681526020017f53706c65656e000000000000000000000000000000000000000000000000000081525081526020016040518060400160405280600681526020017f506c616e6b73000000000000000000000000000000000000000000000000000081525081526020016040518060400160405280600681526020017f4c6561766573000000000000000000000000000000000000000000000000000081525081526020016040518060400160405280600681526020017f446564756374000000000000000000000000000000000000000000000000000081525081526020016040518060400160405280600681526020017f54696d696e67000000000000000000000000000000000000000000000000000081525081526020016040518060400160405280600681526020017f446566696e65000000000000000000000000000000000000000000000000000081525081526020016040518060400160405280600681526020017f466c61776564000000000000000000000000000000000000000000000000000081525081526020016040518060400160405280600681526020017f50796c6f7269000000000000000000000000000000000000000000000000000081525081526020016040518060400160405280600681526020017f4d6168657368000000000000000000000000000000000000000000000000000081525081526020016040518060400160405280600681526020017f436f6666696e000000000000000000000000000000000000000000000000000081525081526020016040518060400160405280600681526020017f4d6f746f776e000000000000000000000000000000000000000000000000000081525081526020016040518060400160405280600681526020017f4d6172697374000000000000000000000000000000000000000000000000000081525081526020016040518060400160405280600681526020017f48616e646564000000000000000000000000000000000000000000000000000081525081526020016040518060400160405280600681526020017f506f73746572000000000000000000000000000000000000000000000000000081525081526020016040518060400160405280600681526020017f436f62616c74000000000000000000000000000000000000000000000000000081525081526020016040518060400160405280600681526020017f54726176656c000000000000000000000000000000000000000000000000000081525081526020016040518060400160405280600681526020017f4e6173736572000000000000000000000000000000000000000000000000000081525081526020016040518060400160405280600681526020017f536d696c6573000000000000000000000000000000000000000000000000000081525081526020016040518060400160405280600681526020017f447570616765000000000000000000000000000000000000000000000000000081525081526020016040518060400160405280600681526020017f4d616464656e000000000000000000000000000000000000000000000000000081525081526020016040518060400160405280600681526020017f41736b696e67000000000000000000000000000000000000000000000000000081525081526020016040518060400160405280600681526020017f52756e6f6666000000000000000000000000000000000000000000000000000081525081526020016040518060400160405280600681526020017f496e74726f6e000000000000000000000000000000000000000000000000000081525081526020016040518060400160405280600681526020017f4c6976657279000000000000000000000000000000000000000000000000000081525081526020016040518060400160405280600681526020017f506174636879000000000000000000000000000000000000000000000000000081525081526020016040518060400160405280600681526020017f42696c62616f000000000000000000000000000000000000000000000000000081525081526020016040518060400160405280600681526020017f4d6172736861000000000000000000000000000000000000000000000000000081525081526020016040518060400160405280600681526020017f536f70686961000000000000000000000000000000000000000000000000000081525081526020016040518060400160405280600681526020017f496f66666572000000000000000000000000000000000000000000000000000081525081526020016040518060400160405280600681526020017f436c69717565000000000000000000000000000000000000000000000000000081525081526020016040518060400160405280600681526020017f417276616461000000000000000000000000000000000000000000000000000081525081526020016040518060400160405280600681526020017f547566746564000000000000000000000000000000000000000000000000000081525081526020016040518060400160405280600681526020017f4d6f74656c73000000000000000000000000000000000000000000000000000081525081526020016040518060400160405280600681526020017f41636f737461000000000000000000000000000000000000000000000000000081525081526020016040518060400160405280600681526020017f486173686573000000000000000000000000000000000000000000000000000081525081526020016040518060400160405280600681526020017f417373697369000000000000000000000000000000000000000000000000000081525081526020016040518060400160405280600681526020017f4d65726765730000000000000000000000000000000000000000000000000000815250815250600b906032620023219291906200257e565b503480156200232f57600080fd5b506040518060400160405280600781526020017f4d6144524e4654000000000000000000000000000000000000000000000000008152506040518060400160405280600781526020017f4d6144524e4654000000000000000000000000000000000000000000000000008152508160009080519060200190620023b4929190620024ed565b508060019080519060200190620023cd929190620024ed565b5050506200241b6040518060400160405280600781526020017f4d696e744e4654000000000000000000000000000000000000000000000000008152506200242160201b620010a41760201c565b6200279f565b620024c181604051602401620024389190620026b3565b6040516020818303038152906040527f41304fac000000000000000000000000000000000000000000000000000000007bffffffffffffffffffffffffffffffffffffffffffffffffffffffff19166020820180517bffffffffffffffffffffffffffffffffffffffffffffffffffffffff8381831617835250505050620024c460201b60201c565b50565b60008151905060006a636f6e736f6c652e6c6f679050602083016000808483855afa5050505050565b828054620024fb9062002729565b90600052602060002090601f0160209004810192826200251f57600085556200256b565b82601f106200253a57805160ff19168380011785556200256b565b828001600101855582156200256b579182015b828111156200256a5782518255916020019190600101906200254d565b5b5090506200257a9190620025e5565b5090565b828054828255906000526020600020908101928215620025d2579160200282015b82811115620025d1578251829080519060200190620025c0929190620024ed565b50916020019190600101906200259f565b5b509050620025e1919062002604565b5090565b5b8082111562002600576000816000905550600101620025e6565b5090565b5b808211156200262857600081816200261e91906200262c565b5060010162002605565b5090565b5080546200263a9062002729565b6000825580601f106200264e57506200266f565b601f0160209004906000526020600020908101906200266e9190620025e5565b5b50565b60006200267f82620026d7565b6200268b8185620026e2565b93506200269d818560208601620026f3565b620026a8816200278e565b840191505092915050565b60006020820190508181036000830152620026cf818462002672565b905092915050565b600081519050919050565b600082825260208201905092915050565b60005b8381101562002713578082015181840152602081019050620026f6565b8381111562002723576000848401525b50505050565b600060028204905060018216806200274257607f821691505b602082108114156200275957620027586200275f565b5b50919050565b7f4e487b7100000000000000000000000000000000000000000000000000000000600052602260045260246000fd5b6000601f19601f8301169050919050565b61394980620027af6000396000f3fe608060405234801561001057600080fd5b506004361061010b5760003560e01c806370a08231116100a2578063b187301f11610071578063b187301f146102b6578063b88d4fde146102e6578063c575757a14610302578063c87b56dd14610332578063e985e9c5146103625761010b565b806370a082311461024257806395d89b4114610272578063a22cb46514610290578063a50497f8146102ac5761010b565b806323b872dd116100de57806323b872dd146101aa5780632de38d68146101c657806342842e0e146101f65780636352211e146102125761010b565b806301ffc9a71461011057806306fdde0314610140578063081812fc1461015e578063095ea7b31461018e575b600080fd5b61012a600480360381019061012591906124a4565b610392565b60405161013791906131bd565b60405180910390f35b610148610474565b60405161015591906131d8565b60405180910390f35b610178600480360381019061017391906124f6565b610506565b6040516101859190613156565b60405180910390f35b6101a860048036038101906101a39190612468565b61058b565b005b6101c460048036038101906101bf9190612362565b6106a3565b005b6101e060048036038101906101db91906124f6565b610703565b6040516101ed91906131d8565b60405180910390f35b610210600480360381019061020b9190612362565b610821565b005b61022c600480360381019061022791906124f6565b610841565b6040516102399190613156565b60405180910390f35b61025c600480360381019061025791906122fd565b6108f3565b6040516102699190613438565b60405180910390f35b61027a6109ab565b60405161028791906131d8565b60405180910390f35b6102aa60048036038101906102a5919061242c565b610a3d565b005b6102b4610a53565b005b6102d060048036038101906102cb91906124f6565b610c20565b6040516102dd91906131d8565b60405180910390f35b61030060048036038101906102fb91906123b1565b610d3e565b005b61031c600480360381019061031791906124f6565b610da0565b60405161032991906131d8565b60405180910390f35b61034c600480360381019061034791906124f6565b610ebe565b60405161035991906131d8565b60405180910390f35b61037c60048036038101906103779190612326565b611010565b60405161038991906131bd565b60405180910390f35b60007f80ac58cd000000000000000000000000000000000000000000000000000000007bffffffffffffffffffffffffffffffffffffffffffffffffffffffff1916827bffffffffffffffffffffffffffffffffffffffffffffffffffffffff1916148061045d57507f5b5e139f000000000000000000000000000000000000000000000000000000007bffffffffffffffffffffffffffffffffffffffffffffffffffffffff1916827bffffffffffffffffffffffffffffffffffffffffffffffffffffffff1916145b8061046d575061046c8261113d565b5b9050919050565b606060008054610483906136d7565b80601f01602080910402602001604051908101604052809291908181526020018280546104af906136d7565b80156104fc5780601f106104d1576101008083540402835291602001916104fc565b820191906000526020600020905b8154815290600101906020018083116104df57829003601f168201915b5050505050905090565b6000610511826111a7565b610550576040517f08c379a000000000000000000000000000000000000000000000000000000000815260040161054790613398565b60405180910390fd5b6004600083815260200190815260200160002060009054906101000a900473ffffffffffffffffffffffffffffffffffffffff169050919050565b600061059682610841565b90508073ffffffffffffffffffffffffffffffffffffffff168373ffffffffffffffffffffffffffffffffffffffff161415610607576040517f08c379a00000000000000000000000000000000000000000000000000000000081526004016105fe906133f8565b60405180910390fd5b8073ffffffffffffffffffffffffffffffffffffffff16610626611213565b73ffffffffffffffffffffffffffffffffffffffff16148061065557506106548161064f611213565b611010565b5b610694576040517f08c379a000000000000000000000000000000000000000000000000000000000815260040161068b906132d8565b60405180910390fd5b61069e838361121b565b505050565b6106b46106ae611213565b826112d4565b6106f3576040517f08c379a00000000000000000000000000000000000000000000000000000000081526004016106ea90613418565b60405180910390fd5b6106fe8383836113b2565b505050565b606060006107376107138461160e565b6040516020016107239190613112565b6040516020818303038152906040526117bb565b90506009805490508161074a9190613752565b905060098181548110610786577f4e487b7100000000000000000000000000000000000000000000000000000000600052603260045260246000fd5b90600052602060002001805461079b906136d7565b80601f01602080910402602001604051908101604052809291908181526020018280546107c7906136d7565b80156108145780601f106107e957610100808354040283529160200191610814565b820191906000526020600020905b8154815290600101906020018083116107f757829003601f168201915b5050505050915050919050565b61083c83838360405180602001604052806000815250610d3e565b505050565b6000806002600084815260200190815260200160002060009054906101000a900473ffffffffffffffffffffffffffffffffffffffff169050600073ffffffffffffffffffffffffffffffffffffffff168173ffffffffffffffffffffffffffffffffffffffff1614156108ea576040517f08c379a00000000000000000000000000000000000000000000000000000000081526004016108e190613318565b60405180910390fd5b80915050919050565b60008073ffffffffffffffffffffffffffffffffffffffff168273ffffffffffffffffffffffffffffffffffffffff161415610964576040517f08c379a000000000000000000000000000000000000000000000000000000000815260040161095b906132f8565b60405180910390fd5b600360008373ffffffffffffffffffffffffffffffffffffffff1673ffffffffffffffffffffffffffffffffffffffff168152602001908152602001600020549050919050565b6060600180546109ba906136d7565b80601f01602080910402602001604051908101604052809291908181526020018280546109e6906136d7565b8015610a335780601f10610a0857610100808354040283529160200191610a33565b820191906000526020600020905b815481529060010190602001808311610a1657829003601f168201915b5050505050905090565b610a4f610a48611213565b83836117ee565b5050565b6000610a5f600761195b565b90506000610a6c82610703565b90506000610a7983610c20565b90506000610a8684610da0565b90506000838383604051602001610a9f93929190613007565b60405160208183030381529060405290506000600882604051602001610ac6929190613038565b60405160208183030381529060405290506000610b0b83610ae684611969565b604051602001610af79291906130cd565b604051602081830303815290604052611969565b9050600081604051602001610b209190613134565b6040516020818303038152906040529050610b6f6040518060400160405280601581526020017f0a2d2d2d2d2d2d2d2d2d2d2d2d2d2d2d2d2d2d2d2d00000000000000000000008152506110a4565b610b9781604051602001610b839190613067565b6040516020818303038152906040526110a4565b610bd56040518060400160405280601581526020017f2d2d2d2d2d2d2d2d2d2d2d2d2d2d2d2d2d2d2d2d0a00000000000000000000008152506110a4565b610bdf3389611b27565b610be98882611b45565b610c0c6040518060600160405280602781526020016138ed602791398933611bb9565b610c166007611c58565b5050505050505050565b60606000610c54610c308461160e565b604051602001610c4091906130ab565b6040516020818303038152906040526117bb565b9050600a8054905081610c679190613752565b9050600a8181548110610ca3577f4e487b7100000000000000000000000000000000000000000000000000000000600052603260045260246000fd5b906000526020600020018054610cb8906136d7565b80601f0160208091040260200160405190810160405280929190818152602001828054610ce4906136d7565b8015610d315780601f10610d0657610100808354040283529160200191610d31565b820191906000526020600020905b815481529060010190602001808311610d1457829003601f168201915b5050505050915050919050565b610d4f610d49611213565b836112d4565b610d8e576040517f08c379a0000000000000000000000000000000000000000000000000000000008152600401610d8590613418565b60405180910390fd5b610d9a84848484611c6e565b50505050565b60606000610dd4610db08461160e565b604051602001610dc09190613089565b6040516020818303038152906040526117bb565b9050600b8054905081610de79190613752565b9050600b8181548110610e23577f4e487b7100000000000000000000000000000000000000000000000000000000600052603260045260246000fd5b906000526020600020018054610e38906136d7565b80601f0160208091040260200160405190810160405280929190818152602001828054610e64906136d7565b8015610eb15780601f10610e8657610100808354040283529160200191610eb1565b820191906000526020600020905b815481529060010190602001808311610e9457829003601f168201915b5050505050915050919050565b6060610ec9826111a7565b610f08576040517f08c379a0000000000000000000000000000000000000000000000000000000008152600401610eff90613378565b60405180910390fd5b6000600660008481526020019081526020016000208054610f28906136d7565b80601f0160208091040260200160405190810160405280929190818152602001828054610f54906136d7565b8015610fa15780601f10610f7657610100808354040283529160200191610fa1565b820191906000526020600020905b815481529060010190602001808311610f8457829003601f168201915b505050505090506000610fb2611cca565b9050600081511415610fc857819250505061100b565b600082511115610ffd578082604051602001610fe5929190612fe3565b6040516020818303038152906040529250505061100b565b61100684611ce1565b925050505b919050565b6000600560008473ffffffffffffffffffffffffffffffffffffffff1673ffffffffffffffffffffffffffffffffffffffff16815260200190815260200160002060008373ffffffffffffffffffffffffffffffffffffffff1673ffffffffffffffffffffffffffffffffffffffff16815260200190815260200160002060009054906101000a900460ff16905092915050565b61113a816040516024016110b891906131d8565b6040516020818303038152906040527f41304fac000000000000000000000000000000000000000000000000000000007bffffffffffffffffffffffffffffffffffffffffffffffffffffffff19166020820180517bffffffffffffffffffffffffffffffffffffffffffffffffffffffff8381831617835250505050611d88565b50565b60007f01ffc9a7000000000000000000000000000000000000000000000000000000007bffffffffffffffffffffffffffffffffffffffffffffffffffffffff1916827bffffffffffffffffffffffffffffffffffffffffffffffffffffffff1916149050919050565b60008073ffffffffffffffffffffffffffffffffffffffff166002600084815260200190815260200160002060009054906101000a900473ffffffffffffffffffffffffffffffffffffffff1673ffffffffffffffffffffffffffffffffffffffff1614159050919050565b600033905090565b816004600083815260200190815260200160002060006101000a81548173ffffffffffffffffffffffffffffffffffffffff021916908373ffffffffffffffffffffffffffffffffffffffff160217905550808273ffffffffffffffffffffffffffffffffffffffff1661128e83610841565b73ffffffffffffffffffffffffffffffffffffffff167f8c5be1e5ebec7d5bd14f71427d1e84f3dd0314c0f7b2291e5b200ac8c7c3b92560405160405180910390a45050565b60006112df826111a7565b61131e576040517f08c379a0000000000000000000000000000000000000000000000000000000008152600401611315906132b8565b60405180910390fd5b600061132983610841565b90508073ffffffffffffffffffffffffffffffffffffffff168473ffffffffffffffffffffffffffffffffffffffff16148061139857508373ffffffffffffffffffffffffffffffffffffffff1661138084610506565b73ffffffffffffffffffffffffffffffffffffffff16145b806113a957506113a88185611010565b5b91505092915050565b8273ffffffffffffffffffffffffffffffffffffffff166113d282610841565b73ffffffffffffffffffffffffffffffffffffffff1614611428576040517f08c379a000000000000000000000000000000000000000000000000000000000815260040161141f906133b8565b60405180910390fd5b600073ffffffffffffffffffffffffffffffffffffffff168273ffffffffffffffffffffffffffffffffffffffff161415611498576040517f08c379a000000000000000000000000000000000000000000000000000000000815260040161148f90613278565b60405180910390fd5b6114a3838383611db1565b6114ae60008261121b565b6001600360008573ffffffffffffffffffffffffffffffffffffffff1673ffffffffffffffffffffffffffffffffffffffff16815260200190815260200160002060008282546114fe91906135ed565b925050819055506001600360008473ffffffffffffffffffffffffffffffffffffffff1673ffffffffffffffffffffffffffffffffffffffff1681526020019081526020016000206000828254611555919061350c565b92505081905550816002600083815260200190815260200160002060006101000a81548173ffffffffffffffffffffffffffffffffffffffff021916908373ffffffffffffffffffffffffffffffffffffffff160217905550808273ffffffffffffffffffffffffffffffffffffffff168473ffffffffffffffffffffffffffffffffffffffff167fddf252ad1be2c89b69c2b068fc378daa952ba7f163c4a11628f55a4df523b3ef60405160405180910390a4505050565b60606000821415611656576040518060400160405280600181526020017f300000000000000000000000000000000000000000000000000000000000000081525090506117b6565b600082905060005b6000821461168857808061167190613709565b915050600a826116819190613562565b915061165e565b60008167ffffffffffffffff8111156116ca577f4e487b7100000000000000000000000000000000000000000000000000000000600052604160045260246000fd5b6040519080825280601f01601f1916602001820160405280156116fc5781602001600182028036833780820191505090505b5090505b600085146117af5760018261171591906135ed565b9150600a856117249190613752565b6030611730919061350c565b60f81b81838151811061176c577f4e487b7100000000000000000000000000000000000000000000000000000000600052603260045260246000fd5b60200101907effffffffffffffffffffffffffffffffffffffffffffffffffffffffffffff1916908160001a905350600a856117a89190613562565b9450611700565b8093505050505b919050565b6000816040516020016117ce9190612fcc565b6040516020818303038152906040528051906020012060001c9050919050565b8173ffffffffffffffffffffffffffffffffffffffff168373ffffffffffffffffffffffffffffffffffffffff16141561185d576040517f08c379a000000000000000000000000000000000000000000000000000000000815260040161185490613298565b60405180910390fd5b80600560008573ffffffffffffffffffffffffffffffffffffffff1673ffffffffffffffffffffffffffffffffffffffff16815260200190815260200160002060008473ffffffffffffffffffffffffffffffffffffffff1673ffffffffffffffffffffffffffffffffffffffff16815260200190815260200160002060006101000a81548160ff0219169083151502179055508173ffffffffffffffffffffffffffffffffffffffff168373ffffffffffffffffffffffffffffffffffffffff167f17307eab39ab6107e8899845ad3d59bd9653f200f220920489ca2b5937696c318360405161194e91906131bd565b60405180910390a3505050565b600081600001549050919050565b606060008251905060008114156119925760405180602001604052806000815250915050611b22565b600060036002836119a3919061350c565b6119ad9190613562565b60046119b99190613593565b905060006020826119ca919061350c565b67ffffffffffffffff811115611a09577f4e487b7100000000000000000000000000000000000000000000000000000000600052604160045260246000fd5b6040519080825280601f01601f191660200182016040528015611a3b5781602001600182028036833780820191505090505b50905060006040518060600160405280604081526020016138ad604091399050600181016020830160005b86811015611adf5760038101905062ffffff818a015116603f8160121c168401518060081b905060ff603f83600c1c1686015116810190508060081b905060ff603f8360061c1686015116810190508060081b905060ff603f831686015116810190508060e01b90508084526004840193505050611a66565b506003860660018114611af95760028114611b0957611b14565b613d3d60f01b6002830352611b14565b603d60f81b60018303525b508484525050819450505050505b919050565b611b41828260405180602001604052806000815250611db6565b5050565b611b4e826111a7565b611b8d576040517f08c379a0000000000000000000000000000000000000000000000000000000008152600401611b8490613338565b60405180910390fd5b80600660008481526020019081526020016000209080519060200190611bb4929190612189565b505050565b611c53838383604051602401611bd1939291906131fa565b6040516020818303038152906040527fe3849f79000000000000000000000000000000000000000000000000000000007bffffffffffffffffffffffffffffffffffffffffffffffffffffffff19166020820180517bffffffffffffffffffffffffffffffffffffffffffffffffffffffff8381831617835250505050611d88565b505050565b6001816000016000828254019250508190555050565b611c798484846113b2565b611c8584848484611e11565b611cc4576040517f08c379a0000000000000000000000000000000000000000000000000000000008152600401611cbb90613238565b60405180910390fd5b50505050565b606060405180602001604052806000815250905090565b6060611cec826111a7565b611d2b576040517f08c379a0000000000000000000000000000000000000000000000000000000008152600401611d22906133d8565b60405180910390fd5b6000611d35611cca565b90506000815111611d555760405180602001604052806000815250611d80565b80611d5f8461160e565b604051602001611d70929190612fe3565b6040516020818303038152906040525b915050919050565b60008151905060006a636f6e736f6c652e6c6f679050602083016000808483855afa5050505050565b505050565b611dc08383611fa8565b611dcd6000848484611e11565b611e0c576040517f08c379a0000000000000000000000000000000000000000000000000000000008152600401611e0390613238565b60405180910390fd5b505050565b6000611e328473ffffffffffffffffffffffffffffffffffffffff16612176565b15611f9b578373ffffffffffffffffffffffffffffffffffffffff1663150b7a02611e5b611213565b8786866040518563ffffffff1660e01b8152600401611e7d9493929190613171565b602060405180830381600087803b158015611e9757600080fd5b505af1925050508015611ec857506040513d601f19601f82011682018060405250810190611ec591906124cd565b60015b611f4b573d8060008114611ef8576040519150601f19603f3d011682016040523d82523d6000602084013e611efd565b606091505b50600081511415611f43576040517f08c379a0000000000000000000000000000000000000000000000000000000008152600401611f3a90613238565b60405180910390fd5b805181602001fd5b63150b7a0260e01b7bffffffffffffffffffffffffffffffffffffffffffffffffffffffff1916817bffffffffffffffffffffffffffffffffffffffffffffffffffffffff191614915050611fa0565b600190505b949350505050565b600073ffffffffffffffffffffffffffffffffffffffff168273ffffffffffffffffffffffffffffffffffffffff161415612018576040517f08c379a000000000000000000000000000000000000000000000000000000000815260040161200f90613358565b60405180910390fd5b612021816111a7565b15612061576040517f08c379a000000000000000000000000000000000000000000000000000000000815260040161205890613258565b60405180910390fd5b61206d60008383611db1565b6001600360008473ffffffffffffffffffffffffffffffffffffffff1673ffffffffffffffffffffffffffffffffffffffff16815260200190815260200160002060008282546120bd919061350c565b92505081905550816002600083815260200190815260200160002060006101000a81548173ffffffffffffffffffffffffffffffffffffffff021916908373ffffffffffffffffffffffffffffffffffffffff160217905550808273ffffffffffffffffffffffffffffffffffffffff16600073ffffffffffffffffffffffffffffffffffffffff167fddf252ad1be2c89b69c2b068fc378daa952ba7f163c4a11628f55a4df523b3ef60405160405180910390a45050565b600080823b905060008111915050919050565b828054612195906136d7565b90600052602060002090601f0160209004810192826121b757600085556121fe565b82601f106121d057805160ff19168380011785556121fe565b828001600101855582156121fe579182015b828111156121fd5782518255916020019190600101906121e2565b5b50905061220b919061220f565b5090565b5b80821115612228576000816000905550600101612210565b5090565b600061223f61223a84613484565b613453565b90508281526020810184848401111561225757600080fd5b612262848285613695565b509392505050565b60008135905061227981613850565b92915050565b60008135905061228e81613867565b92915050565b6000813590506122a38161387e565b92915050565b6000815190506122b88161387e565b92915050565b600082601f8301126122cf57600080fd5b81356122df84826020860161222c565b91505092915050565b6000813590506122f781613895565b92915050565b60006020828403121561230f57600080fd5b600061231d8482850161226a565b91505092915050565b6000806040838503121561233957600080fd5b60006123478582860161226a565b92505060206123588582860161226a565b9150509250929050565b60008060006060848603121561237757600080fd5b60006123858682870161226a565b93505060206123968682870161226a565b92505060406123a7868287016122e8565b9150509250925092565b600080600080608085870312156123c757600080fd5b60006123d58782880161226a565b94505060206123e68782880161226a565b93505060406123f7878288016122e8565b925050606085013567ffffffffffffffff81111561241457600080fd5b612420878288016122be565b91505092959194509250565b6000806040838503121561243f57600080fd5b600061244d8582860161226a565b925050602061245e8582860161227f565b9150509250929050565b6000806040838503121561247b57600080fd5b60006124898582860161226a565b925050602061249a858286016122e8565b9150509250929050565b6000602082840312156124b657600080fd5b60006124c484828501612294565b91505092915050565b6000602082840312156124df57600080fd5b60006124ed848285016122a9565b91505092915050565b60006020828403121561250857600080fd5b6000612516848285016122e8565b91505092915050565b61252881613621565b82525050565b61253781613633565b82525050565b6000612548826134c9565b61255281856134df565b93506125628185602086016136a4565b61256b8161383f565b840191505092915050565b6000612581826134d4565b61258b81856134f0565b935061259b8185602086016136a4565b6125a48161383f565b840191505092915050565b60006125ba826134d4565b6125c48185613501565b93506125d48185602086016136a4565b80840191505092915050565b600081546125ed816136d7565b6125f78186613501565b94506001821660008114612612576001811461262357612656565b60ff19831686528186019350612656565b61262c856134b4565b60005b8381101561264e5781548189015260018201915060208101905061262f565b838801955050505b50505092915050565b600061266c602583613501565b91507f68747470733a2f2f6e6674707265766965772e30786465762e636f6465732f3f60008301527f636f64653d0000000000000000000000000000000000000000000000000000006020830152602582019050919050565b60006126d26032836134f0565b91507f4552433732313a207472616e7366657220746f206e6f6e20455243373231526560008301527f63656976657220696d706c656d656e74657200000000000000000000000000006020830152604082019050919050565b6000612738606183613501565b91507f222c20226465736372697074696f6e223a202241206d7973746963616c20636f60008301527f6c6c656374696f6e206f66204d6144537175617265204e46542e222c2022696d60208301527f616765223a2022646174613a696d6167652f7376672b786d6c3b62617365363460408301527f2c000000000000000000000000000000000000000000000000000000000000006060830152606182019050919050565b60006127ea601c836134f0565b91507f4552433732313a20746f6b656e20616c7265616479206d696e746564000000006000830152602082019050919050565b600061282a600a83613501565b91507f54484952445f574f5244000000000000000000000000000000000000000000006000830152600a82019050919050565b600061286a6024836134f0565b91507f4552433732313a207472616e7366657220746f20746865207a65726f2061646460008301527f72657373000000000000000000000000000000000000000000000000000000006020830152604082019050919050565b60006128d06019836134f0565b91507f4552433732313a20617070726f766520746f2063616c6c6572000000000000006000830152602082019050919050565b6000612910600b83613501565b91507f5345434f4e445f574f52440000000000000000000000000000000000000000006000830152600b82019050919050565b6000612950602c836134f0565b91507f4552433732313a206f70657261746f7220717565727920666f72206e6f6e657860008301527f697374656e7420746f6b656e00000000000000000000000000000000000000006020830152604082019050919050565b60006129b66038836134f0565b91507f4552433732313a20617070726f76652063616c6c6572206973206e6f74206f7760008301527f6e6572206e6f7220617070726f76656420666f7220616c6c00000000000000006020830152604082019050919050565b6000612a1c602a836134f0565b91507f4552433732313a2062616c616e636520717565727920666f7220746865207a6560008301527f726f2061646472657373000000000000000000000000000000000000000000006020830152604082019050919050565b6000612a826029836134f0565b91507f4552433732313a206f776e657220717565727920666f72206e6f6e657869737460008301527f656e7420746f6b656e00000000000000000000000000000000000000000000006020830152604082019050919050565b6000612ae8602e836134f0565b91507f45524337323155524953746f726167653a2055524920736574206f66206e6f6e60008301527f6578697374656e7420746f6b656e0000000000000000000000000000000000006020830152604082019050919050565b6000612b4e600283613501565b91507f227d0000000000000000000000000000000000000000000000000000000000006000830152600282019050919050565b6000612b8e6020836134f0565b91507f4552433732313a206d696e7420746f20746865207a65726f20616464726573736000830152602082019050919050565b6000612bce6031836134f0565b91507f45524337323155524953746f726167653a2055524920717565727920666f722060008301527f6e6f6e6578697374656e7420746f6b656e0000000000000000000000000000006020830152604082019050919050565b6000612c34602c836134f0565b91507f4552433732313a20617070726f76656420717565727920666f72206e6f6e657860008301527f697374656e7420746f6b656e00000000000000000000000000000000000000006020830152604082019050919050565b6000612c9a6029836134f0565b91507f4552433732313a207472616e73666572206f6620746f6b656e2074686174206960008301527f73206e6f74206f776e00000000000000000000000000000000000000000000006020830152604082019050919050565b6000612d00602f836134f0565b91507f4552433732314d657461646174613a2055524920717565727920666f72206e6f60008301527f6e6578697374656e7420746f6b656e00000000000000000000000000000000006020830152604082019050919050565b6000612d66600a83613501565b91507f7b226e616d65223a2022000000000000000000000000000000000000000000006000830152600a82019050919050565b6000612da66021836134f0565b91507f4552433732313a20617070726f76616c20746f2063757272656e74206f776e6560008301527f72000000000000000000000000000000000000000000000000000000000000006020830152604082019050919050565b6000612e0c600a83613501565b91507f46495253545f574f5244000000000000000000000000000000000000000000006000830152600a82019050919050565b6000612e4c601d83613501565b91507f646174613a6170706c69636174696f6e2f6a736f6e3b6261736536342c0000006000830152601d82019050919050565b6000612e8c608283613501565b91507f3c2f746578743e3c7465787420783d273835252720793d273935252720636c6160008301527f73733d27666f6f7465722720646f6d696e616e742d626173656c696e653d276d60208301527f6964646c652720746578742d616e63686f723d276d6964646c65273e4d61445260408301527f20436f6c6c656374696f6e2026237831463433433b3c2f746578743e3c2f737660608301527f673e0000000000000000000000000000000000000000000000000000000000006080830152608282019050919050565b6000612f646031836134f0565b91507f4552433732313a207472616e736665722063616c6c6572206973206e6f74206f60008301527f776e6572206e6f7220617070726f7665640000000000000000000000000000006020830152604082019050919050565b612fc68161368b565b82525050565b6000612fd882846125af565b915081905092915050565b6000612fef82856125af565b9150612ffb82846125af565b91508190509392505050565b600061301382866125af565b915061301f82856125af565b915061302b82846125af565b9150819050949350505050565b600061304482856125e0565b915061305082846125af565b915061305b82612e7f565b91508190509392505050565b60006130728261265f565b915061307e82846125af565b915081905092915050565b60006130948261281d565b91506130a082846125af565b915081905092915050565b60006130b682612903565b91506130c282846125af565b915081905092915050565b60006130d882612d59565b91506130e482856125af565b91506130ef8261272b565b91506130fb82846125af565b915061310682612b41565b91508190509392505050565b600061311d82612dff565b915061312982846125af565b915081905092915050565b600061313f82612e3f565b915061314b82846125af565b915081905092915050565b600060208201905061316b600083018461251f565b92915050565b6000608082019050613186600083018761251f565b613193602083018661251f565b6131a06040830185612fbd565b81810360608301526131b2818461253d565b905095945050505050565b60006020820190506131d2600083018461252e565b92915050565b600060208201905081810360008301526131f28184612576565b905092915050565b600060608201905081810360008301526132148186612576565b90506132236020830185612fbd565b613230604083018461251f565b949350505050565b60006020820190508181036000830152613251816126c5565b9050919050565b60006020820190508181036000830152613271816127dd565b9050919050565b600060208201905081810360008301526132918161285d565b9050919050565b600060208201905081810360008301526132b1816128c3565b9050919050565b600060208201905081810360008301526132d181612943565b9050919050565b600060208201905081810360008301526132f1816129a9565b9050919050565b6000602082019050818103600083015261331181612a0f565b9050919050565b6000602082019050818103600083015261333181612a75565b9050919050565b6000602082019050818103600083015261335181612adb565b9050919050565b6000602082019050818103600083015261337181612b81565b9050919050565b6000602082019050818103600083015261339181612bc1565b9050919050565b600060208201905081810360008301526133b181612c27565b9050919050565b600060208201905081810360008301526133d181612c8d565b9050919050565b600060208201905081810360008301526133f181612cf3565b9050919050565b6000602082019050818103600083015261341181612d99565b9050919050565b6000602082019050818103600083015261343181612f57565b9050919050565b600060208201905061344d6000830184612fbd565b92915050565b6000604051905081810181811067ffffffffffffffff8211171561347a57613479613810565b5b8060405250919050565b600067ffffffffffffffff82111561349f5761349e613810565b5b601f19601f8301169050602081019050919050565b60008190508160005260206000209050919050565b600081519050919050565b600081519050919050565b600082825260208201905092915050565b600082825260208201905092915050565b600081905092915050565b60006135178261368b565b91506135228361368b565b9250827fffffffffffffffffffffffffffffffffffffffffffffffffffffffffffffffff0382111561355757613556613783565b5b828201905092915050565b600061356d8261368b565b91506135788361368b565b925082613588576135876137b2565b5b828204905092915050565b600061359e8261368b565b91506135a98361368b565b9250817fffffffffffffffffffffffffffffffffffffffffffffffffffffffffffffffff04831182151516156135e2576135e1613783565b5b828202905092915050565b60006135f88261368b565b91506136038361368b565b92508282101561361657613615613783565b5b828203905092915050565b600061362c8261366b565b9050919050565b60008115159050919050565b60007fffffffff0000000000000000000000000000000000000000000000000000000082169050919050565b600073ffffffffffffffffffffffffffffffffffffffff82169050919050565b6000819050919050565b82818337600083830152505050565b60005b838110156136c25780820151818401526020810190506136a7565b838111156136d1576000848401525b50505050565b600060028204905060018216806136ef57607f821691505b60208210811415613703576137026137e1565b5b50919050565b60006137148261368b565b91507fffffffffffffffffffffffffffffffffffffffffffffffffffffffffffffffff82141561374757613746613783565b5b600182019050919050565b600061375d8261368b565b91506137688361368b565b925082613778576137776137b2565b5b828206905092915050565b7f4e487b7100000000000000000000000000000000000000000000000000000000600052601160045260246000fd5b7f4e487b7100000000000000000000000000000000000000000000000000000000600052601260045260246000fd5b7f4e487b7100000000000000000000000000000000000000000000000000000000600052602260045260246000fd5b7f4e487b7100000000000000000000000000000000000000000000000000000000600052604160045260246000fd5b6000601f19601f8301169050919050565b61385981613621565b811461386457600080fd5b50565b61387081613633565b811461387b57600080fd5b50565b6138878161363f565b811461389257600080fd5b50565b61389e8161368b565b81146138a957600080fd5b5056fe4142434445464748494a4b4c4d4e4f505152535455565758595a6162636465666768696a6b6c6d6e6f707172737475767778797a303132333435363738392b2f416e204e4654207769746820494420257320686173206265656e206d696e74656420746f202573a26469706673582212204775b9fc626dcf6775ded1d8203e34a8dfb77699979932fe7c5e8cb6626ceb8a64736f6c634300080000333c7376672077696474683d2735303027206865696768743d27353030272076696577426f783d273020302035303020353030272066696c6c3d276e6f6e652720786d6c6e733d27687474703a2f2f7777772e77332e6f72672f323030302f737667273e203c7374796c653e2e666f6f746572207b2066696c6c3a20626c61636b3b20666f6e742d66616d696c793a204c75636964612053616e7320556e69636f64653b20666f6e742d73697a653a20313270783b207d202e62617365207b2066696c6c3a2077686974653b20666f6e742d66616d696c793a20637572736976653b20666f6e742d73697a653a20333070783b207d3c2f7374796c653e203c726563742077696474683d2735303027206865696768743d27353030272066696c6c3d2775726c28236772616469656e742d66696c6c29272f3e203c646566733e203c6c696e6561724772616469656e742069643d276772616469656e742d66696c6c272078313d2730272079313d2730272078323d27353030272079323d273227206772616469656e74556e6974733d277573657253706163654f6e557365273e203c73746f70206f66667365743d2730272073746f702d636f6c6f723d2723323633623563272f3e203c73746f70206f66667365743d27302e3134323835373134323835373134323835272073746f702d636f6c6f723d2723346434373731272f3e203c73746f70206f66667365743d27302e32383537313432383537313432383537272073746f702d636f6c6f723d2723373635323766272f3e203c73746f70206f66667365743d27302e3432383537313432383537313432383535272073746f702d636f6c6f723d2723396635633835272f3e203c73746f70206f66667365743d27302e35373134323835373134323835373134272073746f702d636f6c6f723d2723633536613833272f3e203c73746f70206f66667365743d27302e37313432383537313432383537313432272073746f702d636f6c6f723d2723653337643763272f3e203c73746f70206f66667365743d27302e38353731343238353731343238353731272073746f702d636f6c6f723d2723663739363732272f3e203c73746f70206f66667365743d2731272073746f702d636f6c6f723d2723666662353662272f3e203c2f6c696e6561724772616469656e743e203c2f646566733e203c7465787420783d273530252720793d273530252720636c6173733d27626173652720646f6d696e616e742d626173656c696e653d276d6964646c652720746578742d616e63686f723d276d6964646c65273e",
  "linkReferences": {},
  "deployedLinkReferences": {}
}