{
  "_format": "hh-sol-artifact-1",
  "contractName": "WavesPortal",
  "sourceName": "contracts/WavesPortal.sol",
  "abi": [
    {
      "inputs": [],
      "stateMutability": "payable",
      "type": "constructor"
    },
    {
      "anonymous": false,
      "inputs": [
        {
          "indexed": true,
          "internalType": "address",
          "name": "from",
          "type": "address"
        },
        {
          "indexed": false,
          "internalType": "uint256",
          "name": "timestamp",
          "type": "uint256"
        },
        {
          "indexed": false,
          "internalType": "string",
          "name": "message",
          "type": "string"
        }
      ],
      "name": "NewWave",
      "type": "event"
    },
    {
      "inputs": [
        {
          "internalType": "string",
          "name": "_message",
          "type": "string"
        }
      ],
      "name": "addWave",
      "outputs": [],
      "stateMutability": "nonpayable",
      "type": "function"
    },
    {
      "inputs": [],
      "name": "getAllWaves",
      "outputs": [
        {
          "components": [
            {
              "internalType": "address",
              "name": "waver",
              "type": "address"
            },
            {
              "internalType": "uint256",
              "name": "timestamp",
              "type": "uint256"
            },
            {
              "internalType": "string",
              "name": "message",
              "type": "string"
            }
          ],
          "internalType": "struct WavesPortal.Wave[]",
          "name": "",
          "type": "tuple[]"
        }
      ],
      "stateMutability": "view",
      "type": "function"
    },
    {
      "inputs": [],
      "name": "getTotalWaves",
      "outputs": [
        {
          "internalType": "uint256",
          "name": "",
          "type": "uint256"
        }
      ],
      "stateMutability": "view",
      "type": "function"
    },
    {
      "inputs": [
        {
          "internalType": "address",
          "name": "",
          "type": "address"
        }
      ],
      "name": "lastWavedAt",
      "outputs": [
        {
          "internalType": "uint256",
          "name": "",
          "type": "uint256"
        }
      ],
      "stateMutability": "view",
      "type": "function"
    }
  ],
  "bytecode": "0x60806040526200004f6040518060400160405280601981526020017f57652068617665206265656e20636f6e737472756374656421000000000000008152506200007760201b620006871760201c565b606444426200005f9190620001c4565b6200006b919062000261565b60018190555062000308565b62000117816040516024016200008e919062000184565b6040516020818303038152906040527f41304fac000000000000000000000000000000000000000000000000000000007bffffffffffffffffffffffffffffffffffffffffffffffffffffffff19166020820180517bffffffffffffffffffffffffffffffffffffffffffffffffffffffff83818316178352505050506200011a60201b60201c565b50565b60008151905060006a636f6e736f6c652e6c6f679050602083016000808483855afa5050505050565b60006200015082620001a8565b6200015c8185620001b3565b93506200016e8185602086016200022b565b6200017981620002f7565b840191505092915050565b60006020820190508181036000830152620001a0818462000143565b905092915050565b600081519050919050565b600082825260208201905092915050565b6000620001d18262000221565b9150620001de8362000221565b9250827fffffffffffffffffffffffffffffffffffffffffffffffffffffffffffffffff0382111562000216576200021562000299565b5b828201905092915050565b6000819050919050565b60005b838110156200024b5780820151818401526020810190506200022e565b838111156200025b576000848401525b50505050565b60006200026e8262000221565b91506200027b8362000221565b9250826200028e576200028d620002c8565b5b828206905092915050565b7f4e487b7100000000000000000000000000000000000000000000000000000000600052601160045260246000fd5b7f4e487b7100000000000000000000000000000000000000000000000000000000600052601260045260246000fd5b6000601f19601f8301169050919050565b6112c280620003186000396000f3fe608060405234801561001057600080fd5b506004361061004c5760003560e01c806308d77f90146100515780639a2cdc081461006d578063a42a46631461008b578063bd43a908146100bb575b600080fd5b61006b60048036038101906100669190610a69565b6100d9565b005b6100756104d3565b6040516100829190610e1b565b60405180910390f35b6100a560048036038101906100a09190610a40565b61051e565b6040516100b29190610e1b565b60405180910390f35b6100c3610536565b6040516100d09190610cd2565b60405180910390f35b42610384600360003373ffffffffffffffffffffffffffffffffffffffff1673ffffffffffffffffffffffffffffffffffffffff168152602001908152602001600020546101279190610f2d565b10610167576040517f08c379a000000000000000000000000000000000000000000000000000000000815260040161015e90610dfb565b60405180910390fd5b42600360003373ffffffffffffffffffffffffffffffffffffffff1673ffffffffffffffffffffffffffffffffffffffff168152602001908152602001600020819055506000808154809291906101bd90611064565b91905055506102026040518060400160405280601681526020017f257320776176656420772f206d657373616765202573000000000000000000008152503383610720565b600260405180606001604052803373ffffffffffffffffffffffffffffffffffffffff16815260200142815260200183815250908060018154018082558091505060019003906000526020600020906003020160009091909190915060008201518160000160006101000a81548173ffffffffffffffffffffffffffffffffffffffff021916908373ffffffffffffffffffffffffffffffffffffffff1602179055506020820151816001015560408201518160020190805190602001906102cb929190610920565b505050606460015442446102df9190610f2d565b6102e99190610f2d565b6102f391906110ad565b60018190555061033a6040518060400160405280601681526020017f52616e646f6d20232067656e6572617465643a202564000000000000000000008152506001546107bf565b603260015411610480576103836040518060400160405280600781526020017f257320776f6e21000000000000000000000000000000000000000000000000008152503361085b565b6000655af3107a40009050478111156103d1576040517f08c379a00000000000000000000000000000000000000000000000000000000081526004016103c890610dbb565b60405180910390fd5b60003373ffffffffffffffffffffffffffffffffffffffff16826040516103f790610cbd565b60006040518083038185875af1925050503d8060008114610434576040519150601f19603f3d011682016040523d82523d6000602084013e610439565b606091505b505090508061047d576040517f08c379a000000000000000000000000000000000000000000000000000000000815260040161047490610ddb565b60405180910390fd5b50505b3373ffffffffffffffffffffffffffffffffffffffff167f5f7e16dc676677766a70e9c5628aa6c54ddb8b6e5188e2ae1e1f17f1ffbea71642836040516104c8929190610e36565b60405180910390a250565b60006105166040518060400160405280601781526020017f5765206861766520256420746f74616c207761766573210000000000000000008152506000546107bf565b600054905090565b60036020528060005260406000206000915090505481565b60606002805480602002602001604051908101604052809291908181526020016000905b8282101561067e57838290600052602060002090600302016040518060600160405290816000820160009054906101000a900473ffffffffffffffffffffffffffffffffffffffff1673ffffffffffffffffffffffffffffffffffffffff1673ffffffffffffffffffffffffffffffffffffffff168152602001600182015481526020016002820180546105ed90611001565b80601f016020809104026020016040519081016040528092919081815260200182805461061990611001565b80156106665780601f1061063b57610100808354040283529160200191610666565b820191906000526020600020905b81548152906001019060200180831161064957829003601f168201915b5050505050815250508152602001906001019061055a565b50505050905090565b61071d8160405160240161069b9190610cf4565b6040516020818303038152906040527f41304fac000000000000000000000000000000000000000000000000000000007bffffffffffffffffffffffffffffffffffffffffffffffffffffffff19166020820180517bffffffffffffffffffffffffffffffffffffffffffffffffffffffff83818316178352505050506108f7565b50565b6107ba83838360405160240161073893929190610d46565b6040516020818303038152906040527fe0e9ad4f000000000000000000000000000000000000000000000000000000007bffffffffffffffffffffffffffffffffffffffffffffffffffffffff19166020820180517bffffffffffffffffffffffffffffffffffffffffffffffffffffffff83818316178352505050506108f7565b505050565b61085782826040516024016107d5929190610d8b565b6040516020818303038152906040527f9710a9d0000000000000000000000000000000000000000000000000000000007bffffffffffffffffffffffffffffffffffffffffffffffffffffffff19166020820180517bffffffffffffffffffffffffffffffffffffffffffffffffffffffff83818316178352505050506108f7565b5050565b6108f38282604051602401610871929190610d16565b6040516020818303038152906040527f319af333000000000000000000000000000000000000000000000000000000007bffffffffffffffffffffffffffffffffffffffffffffffffffffffff19166020820180517bffffffffffffffffffffffffffffffffffffffffffffffffffffffff83818316178352505050506108f7565b5050565b60008151905060006a636f6e736f6c652e6c6f679050602083016000808483855afa5050505050565b82805461092c90611001565b90600052602060002090601f01602090048101928261094e5760008555610995565b82601f1061096757805160ff1916838001178555610995565b82800160010185558215610995579182015b82811115610994578251825591602001919060010190610979565b5b5090506109a291906109a6565b5090565b5b808211156109bf5760008160009055506001016109a7565b5090565b60006109d66109d184610e8b565b610e66565b9050828152602081018484840111156109ee57600080fd5b6109f9848285610fbf565b509392505050565b600081359050610a1081611275565b92915050565b600082601f830112610a2757600080fd5b8135610a378482602086016109c3565b91505092915050565b600060208284031215610a5257600080fd5b6000610a6084828501610a01565b91505092915050565b600060208284031215610a7b57600080fd5b600082013567ffffffffffffffff811115610a9557600080fd5b610aa184828501610a16565b91505092915050565b6000610ab68383610c4f565b905092915050565b610ac781610f83565b82525050565b610ad681610f83565b82525050565b6000610ae782610ecc565b610af18185610eef565b935083602082028501610b0385610ebc565b8060005b85811015610b3f5784840389528151610b208582610aaa565b9450610b2b83610ee2565b925060208a01995050600181019050610b07565b50829750879550505050505092915050565b6000610b5c82610ed7565b610b668185610f0b565b9350610b76818560208601610fce565b610b7f8161119a565b840191505092915050565b6000610b9582610ed7565b610b9f8185610f1c565b9350610baf818560208601610fce565b610bb88161119a565b840191505092915050565b6000610bd0603483610f1c565b9150610bdb826111ab565b604082019050919050565b6000610bf3602783610f1c565b9150610bfe826111fa565b604082019050919050565b6000610c16600083610f00565b9150610c2182611249565b600082019050919050565b6000610c39600883610f1c565b9150610c448261124c565b602082019050919050565b6000606083016000830151610c676000860182610abe565b506020830151610c7a6020860182610c9f565b5060408301518482036040860152610c928282610b51565b9150508091505092915050565b610ca881610fb5565b82525050565b610cb781610fb5565b82525050565b6000610cc882610c09565b9150819050919050565b60006020820190508181036000830152610cec8184610adc565b905092915050565b60006020820190508181036000830152610d0e8184610b8a565b905092915050565b60006040820190508181036000830152610d308185610b8a565b9050610d3f6020830184610acd565b9392505050565b60006060820190508181036000830152610d608186610b8a565b9050610d6f6020830185610acd565b8181036040830152610d818184610b8a565b9050949350505050565b60006040820190508181036000830152610da58185610b8a565b9050610db46020830184610cae565b9392505050565b60006020820190508181036000830152610dd481610bc3565b9050919050565b60006020820190508181036000830152610df481610be6565b9050919050565b60006020820190508181036000830152610e1481610c2c565b9050919050565b6000602082019050610e306000830184610cae565b92915050565b6000604082019050610e4b6000830185610cae565b8181036020830152610e5d8184610b8a565b90509392505050565b6000610e70610e81565b9050610e7c8282611033565b919050565b6000604051905090565b600067ffffffffffffffff821115610ea657610ea561116b565b5b610eaf8261119a565b9050602081019050919050565b6000819050602082019050919050565b600081519050919050565b600081519050919050565b6000602082019050919050565b600082825260208201905092915050565b600081905092915050565b600082825260208201905092915050565b600082825260208201905092915050565b6000610f3882610fb5565b9150610f4383610fb5565b9250827fffffffffffffffffffffffffffffffffffffffffffffffffffffffffffffffff03821115610f7857610f776110de565b5b828201905092915050565b6000610f8e82610f95565b9050919050565b600073ffffffffffffffffffffffffffffffffffffffff82169050919050565b6000819050919050565b82818337600083830152505050565b60005b83811015610fec578082015181840152602081019050610fd1565b83811115610ffb576000848401525b50505050565b6000600282049050600182168061101957607f821691505b6020821081141561102d5761102c61113c565b5b50919050565b61103c8261119a565b810181811067ffffffffffffffff8211171561105b5761105a61116b565b5b80604052505050565b600061106f82610fb5565b91507fffffffffffffffffffffffffffffffffffffffffffffffffffffffffffffffff8214156110a2576110a16110de565b5b600182019050919050565b60006110b882610fb5565b91506110c383610fb5565b9250826110d3576110d261110d565b5b828206905092915050565b7f4e487b7100000000000000000000000000000000000000000000000000000000600052601160045260246000fd5b7f4e487b7100000000000000000000000000000000000000000000000000000000600052601260045260246000fd5b7f4e487b7100000000000000000000000000000000000000000000000000000000600052602260045260246000fd5b7f4e487b7100000000000000000000000000000000000000000000000000000000600052604160045260246000fd5b6000601f19601f8301169050919050565b7f547279696e6720746f207769746864726177206d6f7265206d6f6e657920746860008201527f616e2074686520636f6e7472616374206861732e000000000000000000000000602082015250565b7f4661696c656420746f207769746864726177206d6f6e65792066726f6d20636f60008201527f6e74726163742e00000000000000000000000000000000000000000000000000602082015250565b50565b7f576169742031356d000000000000000000000000000000000000000000000000600082015250565b61127e81610f83565b811461128957600080fd5b5056fea264697066735822122073469dc7f6947e2ce18ffc2021d13f512b03acec484b4df36dca1b2f9916fa2064736f6c63430008040033",
  "linkReferences": {},
  "deployedLinkReferences": {}
}